{
  "_format": "hh-sol-artifact-1",
  "contractName": "ZyftyNFT",
  "sourceName": "contracts/ZyftyNFT.sol",
  "abi": [
    {
      "inputs": [
        {
          "internalType": "address",
          "name": "zyftyRoylatiesAcc",
          "type": "address"
        },
        {
          "internalType": "address",
          "name": "_escrow",
          "type": "address"
        }
      ],
      "stateMutability": "nonpayable",
      "type": "constructor"
    },
    {
      "anonymous": false,
      "inputs": [
        {
          "indexed": true,
          "internalType": "address",
          "name": "owner",
          "type": "address"
        },
        {
          "indexed": true,
          "internalType": "address",
          "name": "approved",
          "type": "address"
        },
        {
          "indexed": true,
          "internalType": "uint256",
          "name": "tokenId",
          "type": "uint256"
        }
      ],
      "name": "Approval",
      "type": "event"
    },
    {
      "anonymous": false,
      "inputs": [
        {
          "indexed": true,
          "internalType": "address",
          "name": "owner",
          "type": "address"
        },
        {
          "indexed": true,
          "internalType": "address",
          "name": "operator",
          "type": "address"
        },
        {
          "indexed": false,
          "internalType": "bool",
          "name": "approved",
          "type": "bool"
        }
      ],
      "name": "ApprovalForAll",
      "type": "event"
    },
    {
      "anonymous": false,
      "inputs": [
        {
          "indexed": true,
          "internalType": "address",
          "name": "previousOwner",
          "type": "address"
        },
        {
          "indexed": true,
          "internalType": "address",
          "name": "newOwner",
          "type": "address"
        }
      ],
      "name": "OwnershipTransferred",
      "type": "event"
    },
    {
      "anonymous": false,
      "inputs": [
        {
          "indexed": true,
          "internalType": "address",
          "name": "from",
          "type": "address"
        },
        {
          "indexed": true,
          "internalType": "address",
          "name": "to",
          "type": "address"
        },
        {
          "indexed": true,
          "internalType": "uint256",
          "name": "tokenId",
          "type": "uint256"
        }
      ],
      "name": "Transfer",
      "type": "event"
    },
    {
      "inputs": [
        {
          "internalType": "uint256",
          "name": "tokenID",
          "type": "uint256"
        },
        {
          "internalType": "address",
          "name": "asset",
          "type": "address"
        },
        {
          "internalType": "uint256",
          "name": "value",
          "type": "uint256"
        },
        {
          "internalType": "address",
          "name": "provider",
          "type": "address"
        },
        {
          "internalType": "bool",
          "name": "isDynamic",
          "type": "bool"
        }
      ],
      "name": "addLien",
      "outputs": [],
      "stateMutability": "nonpayable",
      "type": "function"
    },
    {
      "inputs": [
        {
          "internalType": "address",
          "name": "to",
          "type": "address"
        },
        {
          "internalType": "uint256",
          "name": "tokenId",
          "type": "uint256"
        }
      ],
      "name": "approve",
      "outputs": [],
      "stateMutability": "nonpayable",
      "type": "function"
    },
    {
      "inputs": [
        {
          "internalType": "uint256",
          "name": "tokenID",
          "type": "uint256"
        }
      ],
      "name": "balanceAccounts",
      "outputs": [],
      "stateMutability": "nonpayable",
      "type": "function"
    },
    {
      "inputs": [
        {
          "internalType": "address",
          "name": "owner",
          "type": "address"
        }
      ],
      "name": "balanceOf",
      "outputs": [
        {
          "internalType": "uint256",
          "name": "",
          "type": "uint256"
        }
      ],
      "stateMutability": "view",
      "type": "function"
    },
    {
      "inputs": [
        {
          "internalType": "uint256",
          "name": "id",
          "type": "uint256"
        }
      ],
      "name": "destroyNFT",
      "outputs": [],
      "stateMutability": "nonpayable",
      "type": "function"
    },
    {
      "inputs": [
        {
          "internalType": "uint256",
          "name": "tokenID",
          "type": "uint256"
        }
      ],
      "name": "getAccount",
      "outputs": [
        {
          "components": [
            {
              "internalType": "uint256",
              "name": "reserve",
              "type": "uint256"
            },
            {
              "components": [
                {
                  "internalType": "uint256",
                  "name": "value",
                  "type": "uint256"
                },
                {
                  "internalType": "address",
                  "name": "lienProvider",
                  "type": "address"
                },
                {
                  "internalType": "bool",
                  "name": "dynamicCost",
                  "type": "bool"
                },
                {
                  "internalType": "address",
                  "name": "assetType",
                  "type": "address"
                }
              ],
              "internalType": "struct ZyftyNFT.Lien",
              "name": "primaryLien",
              "type": "tuple"
            },
            {
              "components": [
                {
                  "internalType": "uint256",
                  "name": "_value",
                  "type": "uint256"
                }
              ],
              "internalType": "struct Counters.Counter",
              "name": "lienCount",
              "type": "tuple"
            },
            {
              "components": [
                {
                  "internalType": "uint256",
                  "name": "_value",
                  "type": "uint256"
                }
              ],
              "internalType": "struct Counters.Counter",
              "name": "nextLien",
              "type": "tuple"
            }
          ],
          "internalType": "struct ZyftyNFT.Account",
          "name": "",
          "type": "tuple"
        }
      ],
      "stateMutability": "view",
      "type": "function"
    },
    {
      "inputs": [
        {
          "internalType": "uint256",
          "name": "tokenId",
          "type": "uint256"
        }
      ],
      "name": "getApproved",
      "outputs": [
        {
          "internalType": "address",
          "name": "",
          "type": "address"
        }
      ],
      "stateMutability": "view",
      "type": "function"
    },
    {
      "inputs": [
        {
          "internalType": "uint256",
          "name": "tokenID",
          "type": "uint256"
        },
        {
          "internalType": "uint256",
          "name": "lienID",
          "type": "uint256"
        }
      ],
      "name": "getLien",
      "outputs": [
        {
          "components": [
            {
              "internalType": "uint256",
              "name": "value",
              "type": "uint256"
            },
            {
              "internalType": "address",
              "name": "lienProvider",
              "type": "address"
            },
            {
              "internalType": "bool",
              "name": "dynamicCost",
              "type": "bool"
            },
            {
              "internalType": "address",
              "name": "assetType",
              "type": "address"
            }
          ],
          "internalType": "struct ZyftyNFT.Lien",
          "name": "",
          "type": "tuple"
        }
      ],
      "stateMutability": "view",
      "type": "function"
    },
    {
      "inputs": [
        {
          "internalType": "uint256",
          "name": "tokenID",
          "type": "uint256"
        },
        {
          "internalType": "uint256",
          "name": "lienID",
          "type": "uint256"
        },
        {
          "internalType": "uint256",
          "name": "amount",
          "type": "uint256"
        }
      ],
      "name": "increaseLien",
      "outputs": [],
      "stateMutability": "nonpayable",
      "type": "function"
    },
    {
      "inputs": [
        {
          "internalType": "uint256",
          "name": "tokenID",
          "type": "uint256"
        },
        {
          "internalType": "uint256",
          "name": "amount",
          "type": "uint256"
        }
      ],
      "name": "increaseReserve",
      "outputs": [],
      "stateMutability": "nonpayable",
      "type": "function"
    },
    {
      "inputs": [
        {
          "internalType": "address",
          "name": "owner",
          "type": "address"
        },
        {
          "internalType": "address",
          "name": "operator",
          "type": "address"
        }
      ],
      "name": "isApprovedForAll",
      "outputs": [
        {
          "internalType": "bool",
          "name": "",
          "type": "bool"
        }
      ],
      "stateMutability": "view",
      "type": "function"
    },
    {
      "inputs": [
        {
          "internalType": "address",
          "name": "recipient",
          "type": "address"
        },
        {
          "internalType": "string",
          "name": "meta_data_uri",
          "type": "string"
        },
        {
          "internalType": "address",
          "name": "lienProvider",
          "type": "address"
        },
        {
          "internalType": "address",
          "name": "lienAssetType",
          "type": "address"
        }
      ],
      "name": "mint",
      "outputs": [
        {
          "internalType": "uint256",
          "name": "",
          "type": "uint256"
        }
      ],
      "stateMutability": "nonpayable",
      "type": "function"
    },
    {
      "inputs": [],
      "name": "name",
      "outputs": [
        {
          "internalType": "string",
          "name": "",
          "type": "string"
        }
      ],
      "stateMutability": "view",
      "type": "function"
    },
    {
      "inputs": [],
      "name": "owner",
      "outputs": [
        {
          "internalType": "address",
          "name": "",
          "type": "address"
        }
      ],
      "stateMutability": "view",
      "type": "function"
    },
    {
      "inputs": [
        {
          "internalType": "uint256",
          "name": "tokenId",
          "type": "uint256"
        }
      ],
      "name": "ownerOf",
      "outputs": [
        {
          "internalType": "address",
          "name": "",
          "type": "address"
        }
      ],
      "stateMutability": "view",
      "type": "function"
    },
    {
      "inputs": [
        {
          "internalType": "uint256",
          "name": "tokenID",
          "type": "uint256"
        },
        {
          "internalType": "uint256",
          "name": "lienID",
          "type": "uint256"
        },
        {
          "internalType": "uint256",
          "name": "amount",
          "type": "uint256"
        }
      ],
      "name": "payLien",
      "outputs": [],
      "stateMutability": "nonpayable",
      "type": "function"
    },
    {
      "inputs": [
        {
          "internalType": "uint256",
          "name": "tokenID",
          "type": "uint256"
        },
        {
          "internalType": "uint256",
          "name": "lienID",
          "type": "uint256"
        }
      ],
      "name": "removeLien",
      "outputs": [],
      "stateMutability": "nonpayable",
      "type": "function"
    },
    {
      "inputs": [],
      "name": "renounceOwnership",
      "outputs": [],
      "stateMutability": "nonpayable",
      "type": "function"
    },
    {
      "inputs": [
        {
          "internalType": "address",
          "name": "from",
          "type": "address"
        },
        {
          "internalType": "address",
          "name": "to",
          "type": "address"
        },
        {
          "internalType": "uint256",
          "name": "tokenId",
          "type": "uint256"
        }
      ],
      "name": "safeTransferFrom",
      "outputs": [],
      "stateMutability": "nonpayable",
      "type": "function"
    },
    {
      "inputs": [
        {
          "internalType": "address",
          "name": "from",
          "type": "address"
        },
        {
          "internalType": "address",
          "name": "to",
          "type": "address"
        },
        {
          "internalType": "uint256",
          "name": "tokenId",
          "type": "uint256"
        },
        {
          "internalType": "bytes",
          "name": "_data",
          "type": "bytes"
        }
      ],
      "name": "safeTransferFrom",
      "outputs": [],
      "stateMutability": "nonpayable",
      "type": "function"
    },
    {
      "inputs": [
        {
          "internalType": "address",
          "name": "operator",
          "type": "address"
        },
        {
          "internalType": "bool",
          "name": "approved",
          "type": "bool"
        }
      ],
      "name": "setApprovalForAll",
      "outputs": [],
      "stateMutability": "nonpayable",
      "type": "function"
    },
    {
      "inputs": [
        {
          "internalType": "bytes4",
          "name": "interfaceId",
          "type": "bytes4"
        }
      ],
      "name": "supportsInterface",
      "outputs": [
        {
          "internalType": "bool",
          "name": "",
          "type": "bool"
        }
      ],
      "stateMutability": "view",
      "type": "function"
    },
    {
      "inputs": [],
      "name": "symbol",
      "outputs": [
        {
          "internalType": "string",
          "name": "",
          "type": "string"
        }
      ],
      "stateMutability": "view",
      "type": "function"
    },
    {
      "inputs": [
        {
          "internalType": "uint256",
          "name": "tokenId",
          "type": "uint256"
        }
      ],
      "name": "tokenURI",
      "outputs": [
        {
          "internalType": "string",
          "name": "",
          "type": "string"
        }
      ],
      "stateMutability": "view",
      "type": "function"
    },
    {
      "inputs": [
        {
          "internalType": "address",
          "name": "from",
          "type": "address"
        },
        {
          "internalType": "address",
          "name": "to",
          "type": "address"
        },
        {
          "internalType": "uint256",
          "name": "tokenId",
          "type": "uint256"
        }
      ],
      "name": "transferFrom",
      "outputs": [],
      "stateMutability": "nonpayable",
      "type": "function"
    },
    {
      "inputs": [
        {
          "internalType": "address",
          "name": "newOwner",
          "type": "address"
        }
      ],
      "name": "transferOwnership",
      "outputs": [],
      "stateMutability": "nonpayable",
      "type": "function"
    }
  ],
  "bytecode": "0x60806040523480156200001157600080fd5b50604051620028ae380380620028ae8339810160408190526200003491620001fe565b6040805180820182526008815267169e599d1e53919560c21b6020808301918252835180850190945260048452631693919560e21b90840152815191929162000080916000916200013b565b508051620000969060019060208401906200013b565b505050620000b3620000ad620000e560201b60201c565b620000e9565b600c80546001600160a01b039384166001600160a01b031991821617909155600b805492909316911617905562000272565b3390565b600680546001600160a01b038381166001600160a01b0319831681179093556040519116919082907f8be0079c531659141344cd1fd0a4f28419497f9722a3daafe3b4186f6b6457e090600090a35050565b828054620001499062000235565b90600052602060002090601f0160209004810192826200016d5760008555620001b8565b82601f106200018857805160ff1916838001178555620001b8565b82800160010185558215620001b8579182015b82811115620001b85782518255916020019190600101906200019b565b50620001c6929150620001ca565b5090565b5b80821115620001c65760008155600101620001cb565b80516001600160a01b0381168114620001f957600080fd5b919050565b6000806040838503121562000211578182fd5b6200021c83620001e1565b91506200022c60208401620001e1565b90509250929050565b600181811c908216806200024a57607f821691505b602082108114156200026c57634e487b7160e01b600052602260045260246000fd5b50919050565b61262c80620002826000396000f3fe608060405234801561001057600080fd5b506004361061018e5760003560e01c80638e5e44be116100de578063c40412b511610097578063ce88b14511610071578063ce88b14514610369578063d7ef2370146103d7578063e985e9c5146103ea578063f2fde38b1461042657600080fd5b8063c40412b514610323578063c559672614610336578063c87b56dd1461035657600080fd5b80638e5e44be146102bc57806395d89b41146102cf578063a22cb465146102d7578063b054d547146102ea578063b88d4fde146102fd578063c03d76371461031057600080fd5b806342842e0e1161014b57806370a082311161012557806370a082311461026f578063715018a6146102905780638bc3d46d146102985780638da5cb5b146102ab57600080fd5b806342842e0e146102365780636352211e146102495780636d71be4c1461025c57600080fd5b806301ffc9a71461019357806306fdde03146101bb578063081812fc146101d0578063095ea7b3146101fb57806323b872dd146102105780633ad519b914610223575b600080fd5b6101a66101a1366004612201565b610439565b60405190151581526020015b60405180910390f35b6101c361048b565b6040516101b2919061238f565b6101e36101de366004612239565b61051d565b6040516001600160a01b0390911681526020016101b2565b61020e6102093660046121bc565b6105b7565b005b61020e61021e366004612052565b6106cd565b61020e610231366004612251565b6106fe565b61020e610244366004612052565b610872565b6101e3610257366004612239565b61088d565b61020e61026a3660046122ab565b610904565b61028261027d366004612006565b6109c9565b6040519081526020016101b2565b61020e610a50565b61020e6102a63660046122ab565b610a86565b6006546001600160a01b03166101e3565b61020e6102ca3660046122cc565b610b80565b6101c3610cae565b61020e6102e5366004612106565b610cbd565b61020e6102f83660046122cc565b610ccc565b61020e61030b36600461208d565b610dbb565b61028261031e36600461213c565b610df3565b61020e610331366004612239565b610f0f565b6103496103443660046122ab565b610ffa565b6040516101b2919061247a565b6101c3610364366004612239565b6110df565b61037c610377366004612239565b6111c7565b6040805182518152602080840151805182840152908101516001600160a01b039081168385015281840151151560608085019190915291820151166080830152918301515160a08201529101515160c082015260e0016101b2565b61020e6103e5366004612239565b611261565b6101a66103f8366004612020565b6001600160a01b03918216600090815260056020908152604080832093909416825291909152205460ff1690565b61020e610434366004612006565b611472565b60006001600160e01b031982166380ac58cd60e01b148061046a57506001600160e01b03198216635b5e139f60e01b145b8061048557506301ffc9a760e01b6001600160e01b03198316145b92915050565b60606000805461049a90612526565b80601f01602080910402602001604051908101604052809291908181526020018280546104c690612526565b80156105135780601f106104e857610100808354040283529160200191610513565b820191906000526020600020905b8154815290600101906020018083116104f657829003601f168201915b5050505050905090565b6000818152600260205260408120546001600160a01b031661059b5760405162461bcd60e51b815260206004820152602c60248201527f4552433732313a20617070726f76656420717565727920666f72206e6f6e657860448201526b34b9ba32b73a103a37b5b2b760a11b60648201526084015b60405180910390fd5b506000908152600460205260409020546001600160a01b031690565b60006105c28261088d565b9050806001600160a01b0316836001600160a01b031614156106305760405162461bcd60e51b815260206004820152602160248201527f4552433732313a20617070726f76616c20746f2063757272656e74206f776e656044820152603960f91b6064820152608401610592565b336001600160a01b038216148061064c575061064c81336103f8565b6106be5760405162461bcd60e51b815260206004820152603860248201527f4552433732313a20617070726f76652063616c6c6572206973206e6f74206f7760448201527f6e6572206e6f7220617070726f76656420666f7220616c6c00000000000000006064820152608401610592565b6106c8838361150d565b505050565b6106d7338261157b565b6106f35760405162461bcd60e51b815260040161059290612429565b6106c883838361166e565b336107088661088d565b6001600160a01b03161461071b57600080fd5b600085815260086020526040812090610735600483015490565b9050600481106107875760405162461bcd60e51b815260206004820181905260248201527f4e6f206d6f7265207468616e2034206c69656e732061726520616c6c6f7765646044820152606401610592565b6107978260040180546001019055565b6107a78260050180546001019055565b6040518060800160405280868152602001856001600160a01b031681526020018415158152602001876001600160a01b03168152506009600089815260200190815260200160002060006107fc856005015490565b815260208082019290925260409081016000208351815591830151600183018054928501511515600160a01b026001600160a81b03199093166001600160a01b03928316179290921790915560609092015160029091018054919092166001600160a01b03199190911617905550505050505050565b6106c883838360405180602001604052806000815250610dbb565b6000818152600260205260408120546001600160a01b0316806104855760405162461bcd60e51b815260206004820152602960248201527f4552433732313a206f776e657220717565727920666f72206e6f6e657869737460448201526832b73a103a37b5b2b760b91b6064820152608401610592565b600082815260086020526040908190206003015490516323b872dd60e01b8152336004820152306024820152604481018390526001600160a01b039091169081906323b872dd90606401602060405180830381600087803b15801561096857600080fd5b505af115801561097c573d6000803e3d6000fd5b505050506040513d601f19601f820116820180604052508101906109a091906121e5565b50600083815260086020526040812080548492906109bf9084906124b7565b9091555050505050565b60006001600160a01b038216610a345760405162461bcd60e51b815260206004820152602a60248201527f4552433732313a2062616c616e636520717565727920666f7220746865207a65604482015269726f206164647265737360b01b6064820152608401610592565b506001600160a01b031660009081526003602052604090205490565b6006546001600160a01b03163314610a7a5760405162461bcd60e51b8152600401610592906123f4565b610a846000611815565b565b818133610a938383610ffa565b602001516001600160a01b031614610aed5760405162461bcd60e51b815260206004820152601d60248201527f596f7520617265206e6f7420746865206c69656e2070726f76696465720000006044820152606401610592565b60008311610b3d5760405162461bcd60e51b815260206004820152601a60248201527f43616e6e6f742072656d6f7665207072696d617279204c69656e0000000000006044820152606401610592565b5050600091825260096020908152604080842092845291905281209081556001810180546001600160a81b031916905560020180546001600160a01b0319169055565b81610b8f576106c88382610904565b6000838152600960209081526040808320858452909152908190206002810154600182015492516323b872dd60e01b81523360048201526001600160a01b039384166024820152604481018590529192169081906323b872dd90606401602060405180830381600087803b158015610c0657600080fd5b505af1158015610c1a573d6000803e3d6000fd5b505050506040513d601f19601f82011682018060405250810190610c3e91906121e5565b5081548310801590610c5b57506001820154600160a01b900460ff165b15610c7f576000858152600960209081526040808320878452909152812055610ca7565b8154610c8c9084906124e3565b60008681526009602090815260408083208884529091529020555b5050505050565b60606001805461049a90612526565b610cc8338383611867565b5050565b828233610cd98383610ffa565b602001516001600160a01b031614610d335760405162461bcd60e51b815260206004820152601d60248201527f596f7520617265206e6f7420746865206c69656e2070726f76696465720000006044820152606401610592565b6000610d3f8686610ffa565b9050806040015115156001151514610d995760405162461bcd60e51b815260206004820152601c60248201527f4c69656e20697320706172616d657472696320636f7374206f6e6c79000000006044820152606401610592565b610db38686868460000151610dae91906124b7565b611936565b505050505050565b610dc5338361157b565b610de15760405162461bcd60e51b815260040161059290612429565b610ded84848484611970565b50505050565b6000610e03600780546001019055565b6000610e0e60075490565b9050610e1a86826119a3565b610e248186611af1565b60408051608080820183526000808352835191820184528082526001600160a01b0388811660208085019190915260018487018190528983166060808701919091528287019586528751808401895282815287890190815288518085018a528681528289019081528a8752600885529589902097518855955180519288019290925591810151600287018054988301519185166001600160a81b031990991698909817600160a01b911515919091021790965594909401516003840180546001600160a01b03191691909516179093555151600482015590515160059091015590505b949350505050565b6006546001600160a01b03163314610f395760405162461bcd60e51b8152600401610592906123f4565b610f4281611b10565b600081815260086020526040812060050154905b81811015610faf57600083815260096020908152604080832084845290915281209081556001810180546001600160a81b031916905560020180546001600160a01b031916905580610fa781612561565b915050610f56565b50506000908152600860205260408120818155600181018290556002810180546001600160a81b03191690556003810180546001600160a01b03191690556004810182905560050155565b6040805160808101825260008082526020820181905291810182905260608101919091528161107e575060008281526008602090815260409182902082516080810184526001820154815260028201546001600160a01b0380821694830194909452600160a01b900460ff1615159381019390935260030154166060820152610485565b50600082815260096020908152604080832084845282529182902082516080810184528154815260018201546001600160a01b0380821694830194909452600160a01b900460ff161515938101939093526002015416606082015292915050565b6000818152600260205260409020546060906001600160a01b031661115e5760405162461bcd60e51b815260206004820152602f60248201527f4552433732314d657461646174613a2055524920717565727920666f72206e6f60448201526e3732bc34b9ba32b73a103a37b5b2b760891b6064820152608401610592565b600061117560408051602081019091526000815290565b9050600081511161119557604051806020016040528060008152506111c0565b8061119f84611bb7565b6040516020016111b0929190612323565b6040516020818303038152906040525b9392505050565b6111cf611e64565b5060009081526008602090815260409182902082516080808201855282548252845190810185526001830154815260028301546001600160a01b0380821683870152600160a01b90910460ff1615158287015260038401541660608083019190915282850191909152845180850186526004840154815282860152845193840190945260059091015482529182015290565b6006546001600160a01b0316331461128b5760405162461bcd60e51b8152600401610592906123f4565b60008181526008602090815260409182902080548351608081018552600183015480825260028401546001600160a01b0380821696840196909652600160a01b900460ff16151595820195909552600390920154909216606082018190529192909183158015906112fc5750600082115b15610ca7578184106113b757602083015160405163a9059cbb60e01b81526001600160a01b039182166004820152602481018490529082169063a9059cbb90604401602060405180830381600087803b15801561135857600080fd5b505af115801561136c573d6000803e3d6000fd5b505050506040513d601f19601f8201168201806040525081019061139091906121e5565b5061139b82856124e3565b6000868152600860205260408120918255600190910155610ca7565b602083015160405163a9059cbb60e01b81526001600160a01b039182166004820152602481018690529082169063a9059cbb90604401602060405180830381600087803b15801561140757600080fd5b505af115801561141b573d6000803e3d6000fd5b505050506040513d601f19601f8201168201806040525081019061143f91906121e5565b5060008581526008602052604081205561145984836124e3565b6000868152600860205260409020600101555050505050565b6006546001600160a01b0316331461149c5760405162461bcd60e51b8152600401610592906123f4565b6001600160a01b0381166115015760405162461bcd60e51b815260206004820152602660248201527f4f776e61626c653a206e6577206f776e657220697320746865207a65726f206160448201526564647265737360d01b6064820152608401610592565b61150a81611815565b50565b600081815260046020526040902080546001600160a01b0319166001600160a01b03841690811790915581906115428261088d565b6001600160a01b03167f8c5be1e5ebec7d5bd14f71427d1e84f3dd0314c0f7b2291e5b200ac8c7c3b92560405160405180910390a45050565b6000818152600260205260408120546001600160a01b03166115f45760405162461bcd60e51b815260206004820152602c60248201527f4552433732313a206f70657261746f7220717565727920666f72206e6f6e657860448201526b34b9ba32b73a103a37b5b2b760a11b6064820152608401610592565b60006115ff8361088d565b9050806001600160a01b0316846001600160a01b0316148061163a5750836001600160a01b031661162f8461051d565b6001600160a01b0316145b80610f0757506001600160a01b0380821660009081526005602090815260408083209388168352929052205460ff16610f07565b826001600160a01b03166116818261088d565b6001600160a01b0316146116e55760405162461bcd60e51b815260206004820152602560248201527f4552433732313a207472616e736665722066726f6d20696e636f72726563742060448201526437bbb732b960d91b6064820152608401610592565b6001600160a01b0382166117475760405162461bcd60e51b8152602060048201526024808201527f4552433732313a207472616e7366657220746f20746865207a65726f206164646044820152637265737360e01b6064820152608401610592565b611752838383611cd1565b61175d60008261150d565b6001600160a01b03831660009081526003602052604081208054600192906117869084906124e3565b90915550506001600160a01b03821660009081526003602052604081208054600192906117b49084906124b7565b909155505060008181526002602052604080822080546001600160a01b0319166001600160a01b0386811691821790925591518493918716917fddf252ad1be2c89b69c2b068fc378daa952ba7f163c4a11628f55a4df523b3ef91a4505050565b600680546001600160a01b038381166001600160a01b0319831681179093556040519116919082907f8be0079c531659141344cd1fd0a4f28419497f9722a3daafe3b4186f6b6457e090600090a35050565b816001600160a01b0316836001600160a01b031614156118c95760405162461bcd60e51b815260206004820152601960248201527f4552433732313a20617070726f766520746f2063616c6c6572000000000000006044820152606401610592565b6001600160a01b03838116600081815260056020908152604080832094871680845294825291829020805460ff191686151590811790915591519182527f17307eab39ab6107e8899845ad3d59bd9653f200f220920489ca2b5937696c31910160405180910390a3505050565b81611954576000838152600860205260409020600101819055505050565b6000928352600960209081526040808520938552929052912055565b61197b84848461166e565b61198784848484611d5a565b610ded5760405162461bcd60e51b8152600401610592906123a2565b6001600160a01b0382166119f95760405162461bcd60e51b815260206004820181905260248201527f4552433732313a206d696e7420746f20746865207a65726f20616464726573736044820152606401610592565b6000818152600260205260409020546001600160a01b031615611a5e5760405162461bcd60e51b815260206004820152601c60248201527f4552433732313a20746f6b656e20616c7265616479206d696e746564000000006044820152606401610592565b611a6a60008383611cd1565b6001600160a01b0382166000908152600360205260408120805460019290611a939084906124b7565b909155505060008181526002602052604080822080546001600160a01b0319166001600160a01b03861690811790915590518392907fddf252ad1be2c89b69c2b068fc378daa952ba7f163c4a11628f55a4df523b3ef908290a45050565b6000828152600a6020908152604090912082516106c892840190611edb565b6000611b1b8261088d565b9050611b2981600084611cd1565b611b3460008361150d565b6001600160a01b0381166000908152600360205260408120805460019290611b5d9084906124e3565b909155505060008281526002602052604080822080546001600160a01b0319169055518391906001600160a01b038416907fddf252ad1be2c89b69c2b068fc378daa952ba7f163c4a11628f55a4df523b3ef908390a45050565b606081611bdb5750506040805180820190915260018152600360fc1b602082015290565b8160005b8115611c055780611bef81612561565b9150611bfe9050600a836124cf565b9150611bdf565b60008167ffffffffffffffff811115611c2e57634e487b7160e01b600052604160045260246000fd5b6040519080825280601f01601f191660200182016040528015611c58576020820181803683370190505b5090505b8415610f0757611c6d6001836124e3565b9150611c7a600a8661257c565b611c859060306124b7565b60f81b818381518110611ca857634e487b7160e01b600052603260045260246000fd5b60200101906001600160f81b031916908160001a905350611cca600a866124cf565b9450611c5c565b600b546001600160a01b0384811691161480611cfa5750600b546001600160a01b038381169116145b6106c85760405162461bcd60e51b815260206004820152602b60248201527f546f6b656e206d75737420626520706173736564207468726f7567682053616c60448201526a195cc810dbdb9d1c9858dd60aa1b6064820152608401610592565b60006001600160a01b0384163b15611e5c57604051630a85bd0160e11b81526001600160a01b0385169063150b7a0290611d9e903390899088908890600401612352565b602060405180830381600087803b158015611db857600080fd5b505af1925050508015611de8575060408051601f3d908101601f19168201909252611de59181019061221d565b60015b611e42573d808015611e16576040519150601f19603f3d011682016040523d82523d6000602084013e611e1b565b606091505b508051611e3a5760405162461bcd60e51b8152600401610592906123a2565b805181602001fd5b6001600160e01b031916630a85bd0160e11b149050610f07565b506001610f07565b604051806080016040528060008152602001611ea060408051608081018252600080825260208201819052918101829052606081019190915290565b8152602001611ebb6040518060200160405280600081525090565b8152602001611ed66040518060200160405280600081525090565b905290565b828054611ee790612526565b90600052602060002090601f016020900481019282611f095760008555611f4f565b82601f10611f2257805160ff1916838001178555611f4f565b82800160010185558215611f4f579182015b82811115611f4f578251825591602001919060010190611f34565b50611f5b929150611f5f565b5090565b5b80821115611f5b5760008155600101611f60565b600067ffffffffffffffff80841115611f8f57611f8f6125bc565b604051601f8501601f19908116603f01168101908282118183101715611fb757611fb76125bc565b81604052809350858152868686011115611fd057600080fd5b858560208301376000602087830101525050509392505050565b80356001600160a01b038116811461200157600080fd5b919050565b600060208284031215612017578081fd5b6111c082611fea565b60008060408385031215612032578081fd5b61203b83611fea565b915061204960208401611fea565b90509250929050565b600080600060608486031215612066578081fd5b61206f84611fea565b925061207d60208501611fea565b9150604084013590509250925092565b600080600080608085870312156120a2578081fd5b6120ab85611fea565b93506120b960208601611fea565b925060408501359150606085013567ffffffffffffffff8111156120db578182fd5b8501601f810187136120eb578182fd5b6120fa87823560208401611f74565b91505092959194509250565b60008060408385031215612118578182fd5b61212183611fea565b91506020830135612131816125d2565b809150509250929050565b60008060008060808587031215612151578384fd5b61215a85611fea565b9350602085013567ffffffffffffffff811115612175578384fd5b8501601f81018713612185578384fd5b61219487823560208401611f74565b9350506121a360408601611fea565b91506121b160608601611fea565b905092959194509250565b600080604083850312156121ce578182fd5b6121d783611fea565b946020939093013593505050565b6000602082840312156121f6578081fd5b81516111c0816125d2565b600060208284031215612212578081fd5b81356111c0816125e0565b60006020828403121561222e578081fd5b81516111c0816125e0565b60006020828403121561224a578081fd5b5035919050565b600080600080600060a08688031215612268578081fd5b8535945061227860208701611fea565b93506040860135925061228d60608701611fea565b9150608086013561229d816125d2565b809150509295509295909350565b600080604083850312156122bd578182fd5b50508035926020909101359150565b6000806000606084860312156122e0578081fd5b505081359360208301359350604090920135919050565b6000815180845261230f8160208601602086016124fa565b601f01601f19169290920160200192915050565b600083516123358184602088016124fa565b8351908301906123498183602088016124fa565b01949350505050565b6001600160a01b0385811682528416602082015260408101839052608060608201819052600090612385908301846122f7565b9695505050505050565b6020815260006111c060208301846122f7565b60208082526032908201527f4552433732313a207472616e7366657220746f206e6f6e20455243373231526560408201527131b2b4bb32b91034b6b83632b6b2b73a32b960711b606082015260800190565b6020808252818101527f4f776e61626c653a2063616c6c6572206973206e6f7420746865206f776e6572604082015260600190565b60208082526031908201527f4552433732313a207472616e736665722063616c6c6572206973206e6f74206f6040820152701ddb995c881b9bdc88185c1c1c9bdd9959607a1b606082015260800190565b608081016104858284805182526020808201516001600160a01b039081169184019190915260408083015115159084015260609182015116910152565b600082198211156124ca576124ca612590565b500190565b6000826124de576124de6125a6565b500490565b6000828210156124f5576124f5612590565b500390565b60005b838110156125155781810151838201526020016124fd565b83811115610ded5750506000910152565b600181811c9082168061253a57607f821691505b6020821081141561255b57634e487b7160e01b600052602260045260246000fd5b50919050565b600060001982141561257557612575612590565b5060010190565b60008261258b5761258b6125a6565b500690565b634e487b7160e01b600052601160045260246000fd5b634e487b7160e01b600052601260045260246000fd5b634e487b7160e01b600052604160045260246000fd5b801515811461150a57600080fd5b6001600160e01b03198116811461150a57600080fdfea2646970667358221220b8b964062cd3666cda228ff5515520b3481c6029220152b912a2fa41d0d67bff64736f6c63430008040033",
  "linkReferences": {},
  "deployedLinkReferences": {}
}