{
  "_format": "hh-sol-artifact-1",
  "contractName": "Lien",
  "sourceName": "contracts/Lien/Lien.sol",
  "abi": [
    {
      "inputs": [
        {
          "internalType": "address",
          "name": "_provider",
          "type": "address"
        },
        {
          "internalType": "uint256",
          "name": "_value",
          "type": "uint256"
        },
        {
          "internalType": "address",
          "name": "assetType",
          "type": "address"
        }
      ],
      "stateMutability": "nonpayable",
      "type": "constructor"
    },
    {
      "inputs": [],
      "name": "asset",
      "outputs": [
        {
          "internalType": "address",
          "name": "",
          "type": "address"
        }
      ],
      "stateMutability": "view",
      "type": "function"
    },
    {
      "inputs": [],
      "name": "balance",
      "outputs": [
        {
          "internalType": "uint256",
          "name": "",
          "type": "uint256"
        }
      ],
      "stateMutability": "view",
      "type": "function"
    },
    {
      "inputs": [],
      "name": "lienProvider",
      "outputs": [
        {
          "internalType": "address",
          "name": "",
          "type": "address"
        }
      ],
      "stateMutability": "view",
      "type": "function"
    },
    {
      "inputs": [
        {
          "internalType": "uint256",
          "name": "amount",
          "type": "uint256"
        }
      ],
      "name": "pay",
      "outputs": [],
      "stateMutability": "nonpayable",
      "type": "function"
    },
    {
      "inputs": [
        {
          "internalType": "address",
          "name": "newProvider",
          "type": "address"
        }
      ],
      "name": "setLienProvider",
      "outputs": [],
      "stateMutability": "nonpayable",
      "type": "function"
    },
    {
      "inputs": [],
      "name": "update",
      "outputs": [],
      "stateMutability": "nonpayable",
      "type": "function"
    }
  ],
  "bytecode": "0x608060405234801561001057600080fd5b5060405161039638038061039683398101604081905261002f91610080565b600080546001600160a01b039485166001600160a01b03199182161790915560018054929094169116179091556002556100bb565b80516001600160a01b038116811461007b57600080fd5b919050565b600080600060608486031215610094578283fd5b61009d84610064565b9250602084015191506100b260408501610064565b90509250925092565b6102cc806100ca6000396000f3fe608060405234801561001057600080fd5b50600436106100625760003560e01c806338d52e0f146100675780639c73cc9714610091578063a2e62045146100a2578063b69ef8a8146100a4578063c290d691146100b5578063d8af9eb0146100c8575b600080fd5b6001546001600160a01b03165b6040516001600160a01b0390911681526020015b60405180910390f35b6000546001600160a01b0316610074565b005b600254604051908152602001610088565b6100a26100c336600461025b565b6100f8565b6100a26100d636600461020d565b600080546001600160a01b0319166001600160a01b0392909216919091179055565b600061010c6001546001600160a01b031690565b9050600254821061011d5760025491505b806001600160a01b03166323b872dd3361013f6000546001600160a01b031690565b6040516001600160e01b031960e085901b1681526001600160a01b0392831660048201529116602482015260448101859052606401602060405180830381600087803b15801561018e57600080fd5b505af11580156101a2573d6000803e3d6000fd5b505050506040513d601f19601f820116820180604052508101906101c6919061023b565b506101d0826101d5565b505050565b600060025482106101f0576002546101ed9083610273565b90505b81600260008282546102029190610273565b909155509092915050565b60006020828403121561021e578081fd5b81356001600160a01b0381168114610234578182fd5b9392505050565b60006020828403121561024c578081fd5b81518015158114610234578182fd5b60006020828403121561026c578081fd5b5035919050565b60008282101561029157634e487b7160e01b81526011600452602481fd5b50039056fea2646970667358221220a782f48442f1a43a8fda7179813058db2f24a783333c7dc723377623ddc79ff864736f6c63430008040033",
  "linkReferences": {},
  "deployedLinkReferences": {}
}