{
  "_format": "hh-sol-artifact-1",
  "contractName": "ZyftySalesContract",
  "sourceName": "contracts/ZyftySalesContract.sol",
  "abi": [
    {
      "inputs": [
        {
          "internalType": "address",
          "name": "zyftyAdmin",
          "type": "address"
        }
      ],
      "stateMutability": "nonpayable",
      "type": "constructor"
    },
    {
      "anonymous": false,
      "inputs": [
        {
          "indexed": false,
          "internalType": "uint256",
          "name": "propertyId",
          "type": "uint256"
        }
      ],
      "name": "E_PropertyListed",
      "type": "event"
    },
    {
      "anonymous": false,
      "inputs": [
        {
          "indexed": true,
          "internalType": "uint256",
          "name": "propertyId",
          "type": "uint256"
        },
        {
          "indexed": false,
          "internalType": "address",
          "name": "from",
          "type": "address"
        },
        {
          "indexed": false,
          "internalType": "address",
          "name": "to",
          "type": "address"
        }
      ],
      "name": "E_PropertySold",
      "type": "event"
    },
    {
      "anonymous": false,
      "inputs": [
        {
          "indexed": true,
          "internalType": "address",
          "name": "previousOwner",
          "type": "address"
        },
        {
          "indexed": true,
          "internalType": "address",
          "name": "newOwner",
          "type": "address"
        }
      ],
      "name": "OwnershipTransferred",
      "type": "event"
    },
    {
      "inputs": [
        {
          "internalType": "uint256",
          "name": "id",
          "type": "uint256"
        }
      ],
      "name": "buyProperty",
      "outputs": [],
      "stateMutability": "nonpayable",
      "type": "function"
    },
    {
      "inputs": [
        {
          "internalType": "uint256",
          "name": "id",
          "type": "uint256"
        }
      ],
      "name": "execute",
      "outputs": [],
      "stateMutability": "nonpayable",
      "type": "function"
    },
    {
      "inputs": [
        {
          "internalType": "uint256",
          "name": "id",
          "type": "uint256"
        }
      ],
      "name": "getProperty",
      "outputs": [
        {
          "components": [
            {
              "internalType": "address",
              "name": "nftContract",
              "type": "address"
            },
            {
              "internalType": "uint256",
              "name": "tokenID",
              "type": "uint256"
            },
            {
              "internalType": "address",
              "name": "seller",
              "type": "address"
            },
            {
              "internalType": "address",
              "name": "buyer",
              "type": "address"
            },
            {
              "internalType": "uint256",
              "name": "time",
              "type": "uint256"
            },
            {
              "internalType": "address",
              "name": "asset",
              "type": "address"
            },
            {
              "internalType": "uint256",
              "name": "price",
              "type": "uint256"
            },
            {
              "internalType": "uint256",
              "name": "created",
              "type": "uint256"
            },
            {
              "internalType": "bool",
              "name": "buyerPaid",
              "type": "bool"
            },
            {
              "internalType": "enum ZyftySalesContract.EscrowState",
              "name": "state",
              "type": "uint8"
            }
          ],
          "internalType": "struct ZyftySalesContract.ListedProperty",
          "name": "",
          "type": "tuple"
        }
      ],
      "stateMutability": "view",
      "type": "function"
    },
    {
      "inputs": [],
      "name": "owner",
      "outputs": [
        {
          "internalType": "address",
          "name": "",
          "type": "address"
        }
      ],
      "stateMutability": "view",
      "type": "function"
    },
    {
      "inputs": [],
      "name": "renounceOwnership",
      "outputs": [],
      "stateMutability": "nonpayable",
      "type": "function"
    },
    {
      "inputs": [
        {
          "internalType": "uint256",
          "name": "id",
          "type": "uint256"
        }
      ],
      "name": "revertBuyer",
      "outputs": [],
      "stateMutability": "nonpayable",
      "type": "function"
    },
    {
      "inputs": [
        {
          "internalType": "uint256",
          "name": "id",
          "type": "uint256"
        }
      ],
      "name": "revertSeller",
      "outputs": [],
      "stateMutability": "nonpayable",
      "type": "function"
    },
    {
      "inputs": [
        {
          "internalType": "address",
          "name": "nftContract",
          "type": "address"
        },
        {
          "internalType": "uint256",
          "name": "tokenId",
          "type": "uint256"
        },
        {
          "internalType": "address",
          "name": "asset",
          "type": "address"
        },
        {
          "internalType": "uint256",
          "name": "price",
          "type": "uint256"
        },
        {
          "internalType": "uint256",
          "name": "time",
          "type": "uint256"
        }
      ],
      "name": "sellProperty",
      "outputs": [],
      "stateMutability": "nonpayable",
      "type": "function"
    },
    {
      "inputs": [
        {
          "internalType": "address",
          "name": "nftContract",
          "type": "address"
        },
        {
          "internalType": "uint256",
          "name": "tokenId",
          "type": "uint256"
        },
        {
          "internalType": "address",
          "name": "asset",
          "type": "address"
        },
        {
          "internalType": "uint256",
          "name": "price",
          "type": "uint256"
        },
        {
          "internalType": "uint256",
          "name": "time",
          "type": "uint256"
        },
        {
          "internalType": "address",
          "name": "buyer",
          "type": "address"
        }
      ],
      "name": "sellPropertyBuyer",
      "outputs": [
        {
          "internalType": "uint256",
          "name": "",
          "type": "uint256"
        }
      ],
      "stateMutability": "nonpayable",
      "type": "function"
    },
    {
      "inputs": [
        {
          "internalType": "address",
          "name": "newOwner",
          "type": "address"
        }
      ],
      "name": "transferOwnership",
      "outputs": [],
      "stateMutability": "nonpayable",
      "type": "function"
    }
  ],
  "bytecode": "0x608060405234801561001057600080fd5b506040516113b93803806113b983398101604081905261002f916100ad565b6100383361005d565b600380546001600160a01b0319166001600160a01b03929092169190911790556100db565b600080546001600160a01b038381166001600160a01b0319831681178455604051919092169283917f8be0079c531659141344cd1fd0a4f28419497f9722a3daafe3b4186f6b6457e09190a35050565b6000602082840312156100be578081fd5b81516001600160a01b03811681146100d4578182fd5b9392505050565b6112cf806100ea6000396000f3fe608060405234801561001057600080fd5b506004361061009e5760003560e01c8063bb47214411610066578063bb47214414610117578063bd8a92371461012a578063e3b752641461013d578063f2fde38b1461015e578063fe0d94c11461017157600080fd5b806314fd4783146100a357806332665ffb146100b85780636fa830a6146100e1578063715018a6146100f45780638da5cb5b146100fc575b600080fd5b6100b66100b1366004611021565b610184565b005b6100cb6100c63660046110ec565b61019b565b6040516100d89190611178565b60405180910390f35b6100b66100ef3660046110ec565b6102d2565b6100b66104f5565b6000546040516001600160a01b0390911681526020016100d8565b6100b66101253660046110ec565b61055b565b6100b66101383660046110ec565b61076f565b61015061014b36600461106e565b6108bb565b6040519081526020016100d8565b6100b661016c366004611000565b610b51565b6100b661017f3660046110ec565b610c1c565b610193858585858560006108bb565b505050505050565b6101f06040805161014081018252600080825260208201819052918101829052606081018290526080810182905260a0810182905260c0810182905260e0810182905261010081018290529061012082015290565b60008281526002602081815260409283902083516101408101855281546001600160a01b0390811682526001830154938201939093528184015483169481019490945260038101548216606085015260048101546080850152600581015490911660a0840152600681015460c0840152600781015460e0840152600881015460ff808216151561010080870191909152929361012086019390920416908111156102aa57634e487b7160e01b600052602160045260246000fd5b60028111156102c957634e487b7160e01b600052602160045260246000fd5b90525092915050565b80600080600083815260026020819052604090912060080154610100900460ff169081111561031157634e487b7160e01b600052602160045260246000fd5b1461031b57600080fd5b60008381526002602052604090206004810154600790910154849142916103429190611234565b10156103885760405162461bcd60e51b815260206004820152601060248201526f15da5b991bddc81a5cc818db1bdcd95960821b60448201526064015b60405180910390fd5b6000848152600260205260409020600301546001600160a01b031615806103c857506000848152600260205260409020600301546001600160a01b031633145b61041f5760405162461bcd60e51b815260206004820152602260248201527f596f7520617265206e6f7420617574686f72697a656420746f20627579207468604482015261697360f01b606482015260840161037f565b60008481526002602052604090819020600581015460069091015491516323b872dd60e01b81526001600160a01b039091169182916323b872dd9161046a9133913091600401611126565b602060405180830381600087803b15801561048457600080fd5b505af1158015610498573d6000803e3d6000fd5b505050506040513d601f19601f820116820180604052508101906104bc91906110cc565b5050506000928352505060026020526040902060088101805461ffff191661010117905560030180546001600160a01b03191633179055565b6000546001600160a01b0316331461054f5760405162461bcd60e51b815260206004820181905260248201527f4f776e61626c653a2063616c6c6572206973206e6f7420746865206f776e6572604482015260640161037f565b6105596000610f2a565b565b60008181526002602052604090206004810154600790910154829161057f91611234565b42101561059e5760405162461bcd60e51b815260040161037f9061114a565b60008281526002602052604090206008015460ff1615156001146105f75760405162461bcd60e51b815260206004820152601060248201526f109d5e595c881b995d995c881c185a5960821b604482015260640161037f565b6000828152600260205260409020600301546001600160a01b031633146106585760405162461bcd60e51b81526020600482015260156024820152742cb7ba9036bab9ba103132903a343290313abcb2b960591b604482015260640161037f565b6000828152600260205260409081902060058101546003820154600690920154925163a9059cbb60e01b81526001600160a01b03928316600482015260248101939093521690819063a9059cbb90604401602060405180830381600087803b1580156106c357600080fd5b505af11580156106d7573d6000803e3d6000fd5b505050506040513d601f19601f820116820180604052508101906106fb91906110cc565b506002600084815260026020819052604090912060080154610100900460ff169081111561073957634e487b7160e01b600052602160045260246000fd5b141561074d5761074883610f7a565b505050565b50506000908152600260205260409020600801805461ffff1916610200179055565b60008181526002602052604090206004810154600790910154829161079391611234565b4210156107b25760405162461bcd60e51b815260040161037f9061114a565b600082815260026020819052604090912001546001600160a01b031633146108155760405162461bcd60e51b81526020600482015260166024820152752cb7ba9036bab9ba103132903a34329039b2b63632b960511b604482015260640161037f565b600082815260026020526040908190205490516323b872dd60e01b81526001600160a01b039091169081906323b872dd9061085890309033908890600401611126565b600060405180830381600087803b15801561087257600080fd5b505af1158015610886573d6000803e3d6000fd5b5050506000848152600260205260409020600801805461020061ff001982161790915560ff1690506107485761074883610f7a565b60006001600160a01b0387166109135760405162461bcd60e51b815260206004820152601c60248201527f4e465420436f6e7472616374206973207a65726f206164647265737300000000604482015260640161037f565b6040516323b872dd60e01b815287906001600160a01b038216906323b872dd9061094590339030908c90600401611126565b600060405180830381600087803b15801561095f57600080fd5b505af1158015610973573d6000803e3d6000fd5b50505050610985600180546001019055565b600061099060015490565b90506040518061014001604052808a6001600160a01b03168152602001898152602001336001600160a01b03168152602001856001600160a01b03168152602001868152602001886001600160a01b0316815260200187815260200142815260200160001515815260200160006002811115610a1c57634e487b7160e01b600052602160045260246000fd5b9052600082815260026020818152604092839020845181546001600160a01b03199081166001600160a01b039283161783559286015160018301559385015181840180548416918616919091179055606085015160038201805484169186169190911790556080850151600482015560a0850151600582018054909316941693909317905560c0830151600683015560e083015160078301556101008084015160088401805460ff198116921515928317825561012087015194919361ffff1990911661ff00199093169290921791908490811115610b0b57634e487b7160e01b600052602160045260246000fd5b0217905550506040518281527f582634b9f2f7569e346c45a9b6f10dce101ab15c39ba873bafe98fd18e0a1cb0915060200160405180910390a198975050505050505050565b6000546001600160a01b03163314610bab5760405162461bcd60e51b815260206004820181905260248201527f4f776e61626c653a2063616c6c6572206973206e6f7420746865206f776e6572604482015260640161037f565b6001600160a01b038116610c105760405162461bcd60e51b815260206004820152602660248201527f4f776e61626c653a206e6577206f776e657220697320746865207a65726f206160448201526564647265737360d01b606482015260840161037f565b610c1981610f2a565b50565b600081815260026020526040902060048101546007909101548291610c4091611234565b421015610c5f5760405162461bcd60e51b815260040161037f9061114a565b81600180600083815260026020819052604090912060080154610100900460ff1690811115610c9e57634e487b7160e01b600052602160045260246000fd5b14610ca857600080fd5b600084815260026020819052604090912060038101549101546001600160a01b03918216911633821480610ce45750336001600160a01b038216145b610ced57600080fd5b6000868152600260205260408120805460058201546006909201546001600160a01b03918216939190921691610d259060c89061124c565b60008a815260026020526040908190206001015490516323b872dd60e01b81529192506001600160a01b038516916323b872dd91610d699130918a91600401611126565b600060405180830381600087803b158015610d8357600080fd5b505af1158015610d97573d6000803e3d6000fd5b505060035460405163a9059cbb60e01b81526001600160a01b03918216600482015260248101859052908516925063a9059cbb9150604401602060405180830381600087803b158015610de957600080fd5b505af1158015610dfd573d6000803e3d6000fd5b505050506040513d601f19601f82011682018060405250810190610e2191906110cc565b506000898152600260205260409020600601546001600160a01b0383169063a9059cbb908690610e5290859061126c565b6040516001600160e01b031960e085901b1681526001600160a01b0390921660048301526024820152604401602060405180830381600087803b158015610e9857600080fd5b505af1158015610eac573d6000803e3d6000fd5b505050506040513d601f19601f82011682018060405250810190610ed091906110cc565b50604080516001600160a01b038087168252871660208201528a917f91bef9d2887684cdf932ec87ca0a69e391b83f2256ec9072cc7d9c924119c0d2910160405180910390a2610f1f89610f7a565b505050505050505050565b600080546001600160a01b038381166001600160a01b0319831681178455604051919092169283917f8be0079c531659141344cd1fd0a4f28419497f9722a3daafe3b4186f6b6457e09190a35050565b6000908152600260208190526040822080546001600160a01b03199081168255600182018490559181018054831690556003810180548316905560048101839055600581018054909216909155600681018290556007810191909155600801805461ffff19169055565b80356001600160a01b0381168114610ffb57600080fd5b919050565b600060208284031215611011578081fd5b61101a82610fe4565b9392505050565b600080600080600060a08688031215611038578081fd5b61104186610fe4565b94506020860135935061105660408701610fe4565b94979396509394606081013594506080013592915050565b60008060008060008060c08789031215611086578081fd5b61108f87610fe4565b9550602087013594506110a460408801610fe4565b935060608701359250608087013591506110c060a08801610fe4565b90509295509295509295565b6000602082840312156110dd578081fd5b8151801515811461101a578182fd5b6000602082840312156110fd578081fd5b5035919050565b6003811061112257634e487b7160e01b600052602160045260246000fd5b9052565b6001600160a01b039384168152919092166020820152604081019190915260600190565b6020808252601490820152732bb4b73237bb9034b99039ba34b6361037b832b760611b604082015260600190565b81516001600160a01b0316815261014081016020830151602083015260408301516111ae60408401826001600160a01b03169052565b5060608301516111c960608401826001600160a01b03169052565b506080830151608083015260a08301516111ee60a08401826001600160a01b03169052565b5060c083015160c083015260e083015160e0830152610100808401516112178285018215159052565b50506101208084015161122c82850182611104565b505092915050565b6000821982111561124757611247611283565b500190565b60008261126757634e487b7160e01b81526012600452602481fd5b500490565b60008282101561127e5761127e611283565b500390565b634e487b7160e01b600052601160045260246000fdfea2646970667358221220ff73343dc1fade2f8084c84c64c110187006c0fa3d5631ce915d719ae8697ba264736f6c63430008040033",
  "linkReferences": {},
  "deployedLinkReferences": {}
}