{
  "_format": "hh-sol-artifact-1",
  "contractName": "ParametricLien",
  "sourceName": "contracts/Lien/ParametricLien.sol",
  "abi": [
    {
      "inputs": [
        {
          "internalType": "address",
          "name": "lienProvider",
          "type": "address"
        },
        {
          "internalType": "address",
          "name": "assetType",
          "type": "address"
        },
        {
          "internalType": "uint256",
          "name": "initialValue",
          "type": "uint256"
        },
        {
          "internalType": "uint256",
          "name": "valuePerPeriod",
          "type": "uint256"
        },
        {
          "internalType": "uint256",
          "name": "_period",
          "type": "uint256"
        }
      ],
      "stateMutability": "nonpayable",
      "type": "constructor"
    },
    {
      "inputs": [],
      "name": "asset",
      "outputs": [
        {
          "internalType": "address",
          "name": "",
          "type": "address"
        }
      ],
      "stateMutability": "view",
      "type": "function"
    },
    {
      "inputs": [],
      "name": "balance",
      "outputs": [
        {
          "internalType": "uint256",
          "name": "",
          "type": "uint256"
        }
      ],
      "stateMutability": "view",
      "type": "function"
    },
    {
      "inputs": [],
      "name": "lienProvider",
      "outputs": [
        {
          "internalType": "address",
          "name": "",
          "type": "address"
        }
      ],
      "stateMutability": "view",
      "type": "function"
    },
    {
      "inputs": [
        {
          "internalType": "uint256",
          "name": "amount",
          "type": "uint256"
        }
      ],
      "name": "pay",
      "outputs": [],
      "stateMutability": "nonpayable",
      "type": "function"
    },
    {
      "inputs": [
        {
          "internalType": "address",
          "name": "newProvider",
          "type": "address"
        }
      ],
      "name": "setLienProvider",
      "outputs": [],
      "stateMutability": "nonpayable",
      "type": "function"
    },
    {
      "inputs": [],
      "name": "update",
      "outputs": [],
      "stateMutability": "nonpayable",
      "type": "function"
    }
  ],
  "bytecode": "0x608060405234801561001057600080fd5b5060405161047838038061047883398101604081905261002f9161008d565b600080546001600160a01b039687166001600160a01b0319918216179091556001805496909516951694909417909255600255426003556004556005556100da565b80516001600160a01b038116811461008857600080fd5b919050565b600080600080600060a086880312156100a4578081fd5b6100ad86610071565b94506100bb60208701610071565b6040870151606088015160809098015196999198509695945092505050565b61038f806100e96000396000f3fe608060405234801561001057600080fd5b50600436106100625760003560e01c806338d52e0f146100675780639c73cc9714610091578063a2e62045146100a2578063b69ef8a8146100ac578063c290d691146100bd578063d8af9eb0146100d0575b600080fd5b6001546001600160a01b03165b6040516001600160a01b0390911681526020015b60405180910390f35b6000546001600160a01b0316610074565b6100aa610100565b005b600254604051908152602001610088565b6100aa6100cb3660046102bd565b610138565b6100aa6100de36600461026f565b600080546001600160a01b0319166001600160a01b0392909216919091179055565b600060055460035442610113919061032c565b61011d91906102ed565b905061013560045482610130919061030d565b61021d565b50565b610140610100565b60006101546001546001600160a01b031690565b905060025482106101655760025491505b806001600160a01b03166323b872dd336101876000546001600160a01b031690565b6040516001600160e01b031960e085901b1681526001600160a01b0392831660048201529116602482015260448101859052606401602060405180830381600087803b1580156101d657600080fd5b505af11580156101ea573d6000803e3d6000fd5b505050506040513d601f19601f8201168201806040525081019061020e919061029d565b5061021882610237565b505050565b806002600082825461022f91906102d5565b909155505050565b600060025482106102525760025461024f908361032c565b90505b8160026000828254610264919061032c565b909155509092915050565b600060208284031215610280578081fd5b81356001600160a01b0381168114610296578182fd5b9392505050565b6000602082840312156102ae578081fd5b81518015158114610296578182fd5b6000602082840312156102ce578081fd5b5035919050565b600082198211156102e8576102e8610343565b500190565b60008261030857634e487b7160e01b81526012600452602481fd5b500490565b600081600019048311821515161561032757610327610343565b500290565b60008282101561033e5761033e610343565b500390565b634e487b7160e01b600052601160045260246000fdfea2646970667358221220060dbac3b18cd978b91772b41fe2aa93e8e9f8cae2fff191f2e93ecfd58ea0ff64736f6c63430008040033",
  "linkReferences": {},
  "deployedLinkReferences": {}
}